{
  "contractName": "SimpleStorage",
  "abi": [
    {
      "inputs": [],
      "stateMutability": "nonpayable",
      "type": "constructor"
    },
    {
      "anonymous": false,
      "inputs": [
        {
          "indexed": false,
          "internalType": "uint256",
          "name": "id",
          "type": "uint256"
        },
        {
          "indexed": false,
          "internalType": "string",
          "name": "description",
          "type": "string"
        },
        {
          "indexed": false,
          "internalType": "string",
          "name": "ipfsHash",
          "type": "string"
        }
      ],
      "name": "FileUploaded",
      "type": "event"
    },
    {
      "anonymous": false,
      "inputs": [
        {
          "indexed": false,
          "internalType": "uint256",
          "name": "id",
          "type": "uint256"
        },
        {
          "indexed": false,
          "internalType": "string",
          "name": "_ipfsHash",
          "type": "string"
        },
        {
          "indexed": false,
          "internalType": "address",
          "name": "_address",
          "type": "address"
        },
        {
          "indexed": false,
          "internalType": "string",
          "name": "description",
          "type": "string"
        }
      ],
      "name": "NotificationSent",
      "type": "event"
    },
    {
      "inputs": [
        {
          "internalType": "address",
          "name": "",
          "type": "address"
        },
        {
          "internalType": "uint256",
          "name": "",
          "type": "uint256"
        }
      ],
      "name": "AllFiles",
      "outputs": [
        {
          "internalType": "uint256",
          "name": "id",
          "type": "uint256"
        },
        {
          "internalType": "string",
          "name": "description",
          "type": "string"
        },
        {
          "internalType": "string",
          "name": "ipfsHash",
          "type": "string"
        }
      ],
      "stateMutability": "view",
      "type": "function",
      "constant": true
    },
    {
      "inputs": [
        {
          "internalType": "address",
          "name": "",
          "type": "address"
        },
        {
          "internalType": "uint256",
          "name": "",
          "type": "uint256"
        }
      ],
      "name": "AllInboxMsg",
      "outputs": [
        {
          "internalType": "uint256",
          "name": "id",
          "type": "uint256"
        },
        {
          "internalType": "string",
          "name": "description",
          "type": "string"
        },
        {
          "internalType": "string",
          "name": "ipfsHash",
          "type": "string"
        }
      ],
      "stateMutability": "view",
      "type": "function",
      "constant": true
    },
    {
      "inputs": [
        {
          "internalType": "address",
          "name": "",
          "type": "address"
        }
      ],
      "name": "TotalFiles",
      "outputs": [
        {
          "internalType": "uint256",
          "name": "",
          "type": "uint256"
        }
      ],
      "stateMutability": "view",
      "type": "function",
      "constant": true
    },
    {
      "inputs": [
        {
          "internalType": "address",
          "name": "",
          "type": "address"
        }
      ],
      "name": "TotalInboxMsg",
      "outputs": [
        {
          "internalType": "uint256",
          "name": "",
          "type": "uint256"
        }
      ],
      "stateMutability": "view",
      "type": "function",
      "constant": true
    },
    {
      "inputs": [
        {
          "internalType": "string",
          "name": "_description",
          "type": "string"
        },
        {
          "internalType": "string",
          "name": "_ipfsHash",
          "type": "string"
        }
      ],
      "name": "createFileHash",
      "outputs": [],
      "stateMutability": "nonpayable",
      "type": "function"
    },
    {
      "inputs": [
        {
          "internalType": "address",
          "name": "_address",
          "type": "address"
        },
        {
          "internalType": "string",
          "name": "_description",
          "type": "string"
        },
        {
          "internalType": "string",
          "name": "_ipfsHash",
          "type": "string"
        }
      ],
      "name": "sendIPFSNotification",
      "outputs": [],
      "stateMutability": "nonpayable",
      "type": "function"
    }
  ],
  "bytecode": "0x608060405234801561001057600080fd5b5061087b806100206000396000f3fe608060405234801561001057600080fd5b50600436106100625760003560e01c8063527dff6114610067578063866109f91461007c578063e5268a301461008f578063e9102867146100ba578063ef2f3022146100e8578063ff660175146100fb575b600080fd5b61007a6100753660046104d5565b61011b565b005b61007a61008a366004610555565b6101e8565b6100a261009d3660046105c9565b6102ce565b6040516100b193929190610639565b60405180910390f35b6100da6100c836600461066e565b60026020526000908152604090205481565b6040519081526020016100b1565b6100a26100f63660046105c9565b610409565b6100da61010936600461066e565b60036020526000908152604090205481565b336000818152600260209081526040808320548151606081018352818152808401888152818401889052958552848452828520828652909352922081518155925191929091600182019061016f9082610719565b50604082015160028201906101849082610719565b509050507f292cdfdcf49f6bac4302e6de4e3b72872c4dc695c261a25930620140b49948938184846040516101bb93929190610639565b60405180910390a13360009081526002602052604081208054916101de836107d9565b9190505550505050565b6001600160a01b03831660008181526003602090815260408083205481516060810183528181528084018881528184018890529585526001808552838620838752909452919093208151815593519293909290918201906102499082610719565b506040820151600282019061025e9082610719565b509050507fbca8d7da76bd670fbff78643677185e983f5b339580e00ae2f1ab6963efcd449818386866040516102979493929190610800565b60405180910390a16001600160a01b03841660009081526003602052604081208054916102c3836107d9565b919050555050505050565b6000602081815292815260408082209093529081522080546001820180549192916102f890610690565b80601f016020809104026020016040519081016040528092919081815260200182805461032490610690565b80156103715780601f1061034657610100808354040283529160200191610371565b820191906000526020600020905b81548152906001019060200180831161035457829003601f168201915b50505050509080600201805461038690610690565b80601f01602080910402602001604051908101604052809291908181526020018280546103b290610690565b80156103ff5780601f106103d4576101008083540402835291602001916103ff565b820191906000526020600020905b8154815290600101906020018083116103e257829003601f168201915b5050505050905083565b60016020818152600093845260408085209091529183529120805491810180546102f890610690565b634e487b7160e01b600052604160045260246000fd5b600082601f83011261045957600080fd5b813567ffffffffffffffff8082111561047457610474610432565b604051601f8301601f19908116603f0116810190828211818310171561049c5761049c610432565b816040528381528660208588010111156104b557600080fd5b836020870160208301376000602085830101528094505050505092915050565b600080604083850312156104e857600080fd5b823567ffffffffffffffff8082111561050057600080fd5b61050c86838701610448565b9350602085013591508082111561052257600080fd5b5061052f85828601610448565b9150509250929050565b80356001600160a01b038116811461055057600080fd5b919050565b60008060006060848603121561056a57600080fd5b61057384610539565b9250602084013567ffffffffffffffff8082111561059057600080fd5b61059c87838801610448565b935060408601359150808211156105b257600080fd5b506105bf86828701610448565b9150509250925092565b600080604083850312156105dc57600080fd5b6105e583610539565b946020939093013593505050565b6000815180845260005b81811015610619576020818501810151868301820152016105fd565b506000602082860101526020601f19601f83011685010191505092915050565b83815260606020820152600061065260608301856105f3565b828103604084015261066481856105f3565b9695505050505050565b60006020828403121561068057600080fd5b61068982610539565b9392505050565b600181811c908216806106a457607f821691505b6020821081036106c457634e487b7160e01b600052602260045260246000fd5b50919050565b601f82111561071457600081815260208120601f850160051c810160208610156106f15750805b601f850160051c820191505b81811015610710578281556001016106fd565b5050505b505050565b815167ffffffffffffffff81111561073357610733610432565b610747816107418454610690565b846106ca565b602080601f83116001811461077c57600084156107645750858301515b600019600386901b1c1916600185901b178555610710565b600085815260208120601f198616915b828110156107ab5788860151825594840194600190910190840161078c565b50858210156107c95787850151600019600388901b60f8161c191681555b5050505050600190811b01905550565b6000600182016107f957634e487b7160e01b600052601160045260246000fd5b5060010190565b84815260806020820152600061081960808301866105f3565b6001600160a01b0385166040840152828103606084015261083a81856105f3565b97965050505050505056fea2646970667358221220cee8d912192ec823df027fdb9c7bb33c52b2a28806dc12d47448bef26d54764364736f6c63430008120033",
  "immutableReferences": {},
  "source": "// SPDX-License-Identifier: MIT\npragma solidity >=0.4.22 <0.9.0;\n\n\ncontract SimpleStorage {\n  struct singleFile{\n    uint id;\n    string description;\n    string ipfsHash;\n  }\n\n  struct singleInboxMsg{\n    uint id;\n    string description;\n    string ipfsHash;\n  }\n  constructor() public{}\n\n     event FileUploaded (\n        uint id,\n        string description,\n        string ipfsHash\n   \n    );\n\n    event NotificationSent (\n        uint id,\n        string _ipfsHash, \n        address _address,\n        string description\n\n    );\n   mapping(address => mapping(uint => singleFile)) public AllFiles;\n   mapping(address => mapping(uint => singleInboxMsg)) public AllInboxMsg;\n   mapping(address => uint) public TotalFiles;\n   mapping(address => uint) public TotalInboxMsg;\n\nfunction createFileHash(string memory _description,string memory _ipfsHash) public\n{       \n        uint nthFile = TotalFiles[msg.sender];\n        AllFiles[msg.sender][nthFile] = singleFile(nthFile, _description, _ipfsHash);\n        emit FileUploaded(nthFile, _description, _ipfsHash);\n        TotalFiles[msg.sender]++;\n        \n        }\nfunction sendIPFSNotification(address  _address,string memory _description, string memory _ipfsHash)  public\n    {   \n        uint nthMsg = TotalInboxMsg[_address];\n        AllInboxMsg[_address][nthMsg]=singleInboxMsg(nthMsg,_description,_ipfsHash);\n       emit NotificationSent(nthMsg,_ipfsHash, _address, _description);\n         TotalInboxMsg[_address]++;\n    }  \n}\n\n\n",
  "sourcePath": "/Users/aayush/Blockchain/truffle/contracts/SimpleStorage.sol",
  "compiler": {
    "name": "solc",
    "version": "0.8.18+commit.87f61d96.Emscripten.clang"
  },
  "schemaVersion": "3.4.16",
  "updatedAt": "2023-10-17T09:54:41.493Z",
  "networkType": "ethereum",
  "devdoc": {
    "kind": "dev",
    "methods": {},
    "version": 1
  },
  "userdoc": {
    "kind": "user",
    "methods": {},
    "version": 1
  }
}